{
  "contractName": "vivo",
  "abi": [
    {
      "constant": true,
      "inputs": [
        {
          "name": "",
          "type": "uint256"
        }
      ],
      "name": "vivophones",
      "outputs": [
        {
          "name": "id",
          "type": "uint256"
        },
        {
          "name": "name",
          "type": "string"
        },
        {
          "name": "cid",
          "type": "uint256"
        },
        {
          "name": "phone",
          "type": "uint256"
        },
        {
          "name": "cust_address",
          "type": "string"
        },
        {
          "name": "model",
          "type": "string"
        },
        {
          "name": "imei_no",
          "type": "uint256"
        },
        {
          "name": "price",
          "type": "uint256"
        },
        {
          "name": "purchase_date",
          "type": "string"
        },
        {
          "name": "entered_by",
          "type": "string"
        }
      ],
      "payable": false,
      "stateMutability": "view",
      "type": "function",
      "signature": "0x294fbf4f"
    },
    {
      "constant": true,
      "inputs": [],
      "name": "totalRegistered",
      "outputs": [
        {
          "name": "",
          "type": "uint256"
        }
      ],
      "payable": false,
      "stateMutability": "view",
      "type": "function",
      "signature": "0x927416c0"
    },
    {
      "inputs": [],
      "payable": false,
      "stateMutability": "nonpayable",
      "type": "constructor",
      "signature": "constructor"
    },
    {
      "constant": false,
      "inputs": [
        {
          "name": "_name",
          "type": "string"
        },
        {
          "name": "_cid",
          "type": "uint256"
        },
        {
          "name": "_phone",
          "type": "uint256"
        },
        {
          "name": "_address",
          "type": "string"
        },
        {
          "name": "_model",
          "type": "string"
        },
        {
          "name": "_imei_no",
          "type": "uint256"
        },
        {
          "name": "_price",
          "type": "uint256"
        },
        {
          "name": "_purchase_date",
          "type": "string"
        },
        {
          "name": "_entered_by",
          "type": "string"
        }
      ],
      "name": "registerPhone",
      "outputs": [],
      "payable": false,
      "stateMutability": "nonpayable",
      "type": "function",
      "signature": "0x91d677cc"
    },
    {
      "constant": false,
      "inputs": [
        {
          "name": "id",
          "type": "uint256"
        },
        {
          "name": "_name",
          "type": "string"
        },
        {
          "name": "_cid",
          "type": "uint256"
        },
        {
          "name": "_phone",
          "type": "uint256"
        },
        {
          "name": "_address",
          "type": "string"
        },
        {
          "name": "_model",
          "type": "string"
        },
        {
          "name": "_imei_no",
          "type": "uint256"
        },
        {
          "name": "_price",
          "type": "uint256"
        },
        {
          "name": "_purchase_date",
          "type": "string"
        },
        {
          "name": "_entered_by",
          "type": "string"
        }
      ],
      "name": "updateEntry",
      "outputs": [],
      "payable": false,
      "stateMutability": "nonpayable",
      "type": "function",
      "signature": "0xddde3b91"
    }
  ],
  "bytecode": "0x60806040526000805534801561001457600080fd5b50610efe806100246000396000f3fe6080604052600436106100615763ffffffff7c0100000000000000000000000000000000000000000000000000000000600035041663294fbf4f811461006657806391d677cc146102c3578063927416c0146105ad578063ddde3b91146105d4575b600080fd5b34801561007257600080fd5b506100906004803603602081101561008957600080fd5b50356108c3565b604051808b8152602001806020018a81526020018981526020018060200180602001888152602001878152602001806020018060200186810386528f818151815260200191508051906020019080838360005b838110156100fb5781810151838201526020016100e3565b50505050905090810190601f1680156101285780820380516001836020036101000a031916815260200191505b5086810385528c5181528c516020918201918e019080838360005b8381101561015b578181015183820152602001610143565b50505050905090810190601f1680156101885780820380516001836020036101000a031916815260200191505b5086810384528b5181528b516020918201918d019080838360005b838110156101bb5781810151838201526020016101a3565b50505050905090810190601f1680156101e85780820380516001836020036101000a031916815260200191505b5086810383528851815288516020918201918a019080838360005b8381101561021b578181015183820152602001610203565b50505050905090810190601f1680156102485780820380516001836020036101000a031916815260200191505b50868103825287518152875160209182019189019080838360005b8381101561027b578181015183820152602001610263565b50505050905090810190601f1680156102a85780820380516001836020036101000a031916815260200191505b509f5050505050505050505050505050505060405180910390f35b3480156102cf57600080fd5b506105ab60048036036101208110156102e757600080fd5b81019060208101813564010000000081111561030257600080fd5b82018360208201111561031457600080fd5b8035906020019184600183028401116401000000008311171561033657600080fd5b91908080601f016020809104026020016040519081016040528093929190818152602001838380828437600092019190915250929584359560208601359591945092506060810191506040013564010000000081111561039557600080fd5b8201836020820111156103a757600080fd5b803590602001918460018302840111640100000000831117156103c957600080fd5b91908080601f016020809104026020016040519081016040528093929190818152602001838380828437600092019190915250929594936020810193503591505064010000000081111561041c57600080fd5b82018360208201111561042e57600080fd5b8035906020019184600183028401116401000000008311171561045057600080fd5b91908080601f01602080910402602001604051908101604052809392919081815260200183838082843760009201919091525092958435956020860135959194509250606081019150604001356401000000008111156104af57600080fd5b8201836020820111156104c157600080fd5b803590602001918460018302840111640100000000831117156104e357600080fd5b91908080601f016020809104026020016040519081016040528093929190818152602001838380828437600092019190915250929594936020810193503591505064010000000081111561053657600080fd5b82018360208201111561054857600080fd5b8035906020019184600183028401116401000000008311171561056a57600080fd5b91908080601f016020809104026020016040519081016040528093929190818152602001838380828437600092019190915250929550610bdd945050505050565b005b3480156105b957600080fd5b506105c2610d06565b60408051918252519081900360200190f35b3480156105e057600080fd5b506105ab60048036036101408110156105f857600080fd5b8135919081019060408101602082013564010000000081111561061a57600080fd5b82018360208201111561062c57600080fd5b8035906020019184600183028401116401000000008311171561064e57600080fd5b91908080601f01602080910402602001604051908101604052809392919081815260200183838082843760009201919091525092958435956020860135959194509250606081019150604001356401000000008111156106ad57600080fd5b8201836020820111156106bf57600080fd5b803590602001918460018302840111640100000000831117156106e157600080fd5b91908080601f016020809104026020016040519081016040528093929190818152602001838380828437600092019190915250929594936020810193503591505064010000000081111561073457600080fd5b82018360208201111561074657600080fd5b8035906020019184600183028401116401000000008311171561076857600080fd5b91908080601f01602080910402602001604051908101604052809392919081815260200183838082843760009201919091525092958435956020860135959194509250606081019150604001356401000000008111156107c757600080fd5b8201836020820111156107d957600080fd5b803590602001918460018302840111640100000000831117156107fb57600080fd5b91908080601f016020809104026020016040519081016040528093929190818152602001838380828437600092019190915250929594936020810193503591505064010000000081111561084e57600080fd5b82018360208201111561086057600080fd5b8035906020019184600183028401116401000000008311171561088257600080fd5b91908080601f016020809104026020016040519081016040528093929190818152602001838380828437600092019190915250929550610d0c945050505050565b600160208181526000928352604092839020805481840180548651600296821615610100026000190190911695909504601f8101859004850286018501909652858552909491939290919083018282801561095f5780601f106109345761010080835404028352916020019161095f565b820191906000526020600020905b81548152906001019060200180831161094257829003601f168201915b505050505090806002015490806003015490806004018054600181600116156101000203166002900480601f016020809104026020016040519081016040528092919081815260200182805460018160011615610100020316600290048015610a095780601f106109de57610100808354040283529160200191610a09565b820191906000526020600020905b8154815290600101906020018083116109ec57829003601f168201915b5050505060058301805460408051602060026001851615610100026000190190941693909304601f8101849004840282018401909252818152949594935090830182828015610a995780601f10610a6e57610100808354040283529160200191610a99565b820191906000526020600020905b815481529060010190602001808311610a7c57829003601f168201915b505050505090806006015490806007015490806008018054600181600116156101000203166002900480601f016020809104026020016040519081016040528092919081815260200182805460018160011615610100020316600290048015610b435780601f10610b1857610100808354040283529160200191610b43565b820191906000526020600020905b815481529060010190602001808311610b2657829003601f168201915b5050505060098301805460408051602060026001851615610100026000190190941693909304601f8101849004840282018401909252818152949594935090830182828015610bd35780601f10610ba857610100808354040283529160200191610bd3565b820191906000526020600020905b815481529060010190602001808311610bb657829003601f168201915b505050505090508a565b600080546001908101808355604080516101408101825282815260208082018f81528284018f9052606083018e9052608083018d905260a083018c905260c083018b905260e083018a9052610100830189905261012083018890529386528481529190942084518155915180519293610c5e93908501929190910190610e37565b50604082015160028201556060820151600382015560808201518051610c8e916004840191602090910190610e37565b5060a08201518051610caa916005840191602090910190610e37565b5060c0820151600682015560e082015160078201556101008201518051610cdb916008840191602090910190610e37565b506101208201518051610cf8916009840191602090910190610e37565b505050505050505050505050565b60005481565b6101406040519081016040528060005481526020018a815260200189815260200188815260200187815260200186815260200185815260200184815260200183815260200182815250600160008c8152602001908152602001600020600082015181600001556020820151816001019080519060200190610d8e929190610e37565b50604082015160028201556060820151600382015560808201518051610dbe916004840191602090910190610e37565b5060a08201518051610dda916005840191602090910190610e37565b5060c0820151600682015560e082015160078201556101008201518051610e0b916008840191602090910190610e37565b506101208201518051610e28916009840191602090910190610e37565b50505050505050505050505050565b828054600181600116156101000203166002900490600052602060002090601f016020900481019282601f10610e7857805160ff1916838001178555610ea5565b82800160010185558215610ea5579182015b82811115610ea5578251825591602001919060010190610e8a565b50610eb1929150610eb5565b5090565b610ecf91905b80821115610eb15760008155600101610ebb565b9056fea165627a7a723058208c59021bb844b50f8cb6523b9e8162c0ec856b1d75c6a8e01ee410c154a7f2290029",
  "source": "pragma solidity ^0.5.0;\r\n\r\ncontract vivo {\r\n  uint public totalRegistered = 0;\r\n  struct Phone {\r\n    uint id;\r\n    string name;\r\n    uint cid;\r\n    uint phone;\r\n    string cust_address;\r\n    string model;\r\n    uint imei_no;\r\n    uint price;\r\n    string purchase_date;\r\n\t  string entered_by;\r\n  }\r\n\r\n  mapping(uint => Phone) public vivophones;\r\n\r\n  constructor() public {\r\n      \r\n  }\r\n\r\n  function registerPhone (\r\n    string memory _name,\r\n    uint _cid,\r\n    uint _phone,\r\n    string memory _address,\r\n    string memory _model,\r\n    uint _imei_no,\r\n    uint _price,\r\n    string memory _purchase_date,\r\n\t  string memory _entered_by\r\n  ) public {\r\n    totalRegistered++;\r\n    vivophones[totalRegistered] = Phone (\r\n      totalRegistered,\r\n      _name,\r\n      _cid,\r\n      _phone,\r\n      _address,\r\n      _model,\r\n      _imei_no,\r\n      _price,\r\n      _purchase_date,\r\n\t    _entered_by\r\n    );\r\n  }\r\n\r\n  function updateEntry (\r\n    uint id,\r\n    string memory _name,\r\n    uint _cid,\r\n    uint _phone,\r\n    string memory _address,\r\n    string memory _model,\r\n    uint _imei_no,\r\n    uint _price,\r\n    string memory _purchase_date,\r\n    string memory _entered_by\r\n  ) public {\r\n    vivophones[id] = Phone (\r\n      totalRegistered,\r\n      _name,\r\n      _cid,\r\n      _phone,\r\n      _address,\r\n      _model,\r\n      _imei_no,\r\n      _price,\r\n      _purchase_date,\r\n      _entered_by\r\n    );\r\n  }\r\n}",
  "sourcePath": "C:/Users/KAI/Desktop/Vivo Phones/Vivo Smart Contract/contracts/vivo.sol",
  "compiler": {
    "name": "solc",
    "version": "0.5.0+commit.1d4f565a.Emscripten.clang"
  },
  "schemaVersion": "3.0.1",
  "updatedAt": "2021-04-29T04:47:34.236Z",
  "devdoc": {
    "methods": {}
  },
  "userdoc": {
    "methods": {}
  }
}